:100000000C9434000C9451000C9451000C94510049
:100010000C9451000C9451000C9451000C9451001C
:100020000C9451000C9451000C9451000C949607C0
:100030000C9451000C9451000C9451000C945100FC
:100040000C9451000C9451000C9451000C945100EC
:100050000C9451000C9451000C9451000C945100DC
:100060000C9451000C94510011241FBECFEFD8E026
:10007000DEBFCDBF12E0A0E0B1E0E6EFF3E202C0E8
:1000800005900D92A634B107D9F726E0A6E4B2E0B8
:1000900001C01D92AF31B207E1F70E94A3030C9497
:1000A000F9110C940000AC0120E030E080E00CC0BD
:1000B000DA01A20FB31F9C91E82FE927F0E0E95D78
:1000C000FE4F80812F5F3F4F261737078CF308952F
:1000D00040E060EE71E080E090E00E946E0460E03D
:1000E00070E0CB010E948C040E946C0480934E024D
:1000F000682F70E080E090E00E94940F60934A02C5
:1001000070934B0280934C0290934D0220E030E0BC
:1001100040E05FE30E94251060934602709347021F
:10012000809348029093490208958F929F92AF92D4
:10013000BF92CF92DF92EF92FF9220E030E040E456
:1001400051E40E94F10E4B015C01C0904602D09038
:100150004702E0904802F0904902A70196016091A1
:100160004A0270914B0280914C0290914D020E9484
:10017000840E9B01AC01C501B4010E9425109B01B6
:10018000AC01C701B6010E94850E6B017C01609134
:100190004E0270E080E090E00E94940F9B01AC0161
:1001A000C701B6010E94F10E20E030E048EC52E4B5
:1001B0000E9425100E948C04FF90EF90DF90CF905A
:1001C000BF90AF909F908F90089540E064EF71E0F2
:1001D00080E090E00E94B70560E070E0CB010E94F3
:1001E000DD050E94B40580935702682F70E080E01F
:1001F00090E00E94940F6093530270935402809396
:1002000055029093560220E030E040E05FE30E9408
:10021000251060934F027093500280935102909387
:10022000520208958F929F92AF92BF92CF92DF9227
:10023000EF92FF9220E030E040E451E40E94F10EA2
:100240004B015C01C0904F02D0905002E0905102EF
:10025000F0905202A70196016091530270915402EE
:1002600080915502909156020E94840E9B01AC0130
:10027000C501B4010E9425109B01AC01C701B60164
:100280000E94850E6B017C016091570270E080E056
:1002900090E00E94940F9B01AC01C701B6010E943F
:1002A000F10E20E030E048EC52E40E9425100E945C
:1002B000DD05FF90EF90DF90CF90BF90AF909F90C3
:1002C0008F900895CF93DF93EC010E943F0B209114
:1002D000580230915902C9018C0F9D1F803243E0B2
:1002E000940758F42817390758F4E901C65ADD4F26
:1002F000909359028093580205C0C0E0D0E002C03C
:10030000C0E0D0E00E940D0CCE01DF91CF910895A6
:100310000895FC010396928381832FEF3FEF34838E
:100320002383968385839087878310820895FC01B9
:10033000118610860895CF93DF939C01FB01DC01A9
:100340001196CD91DC911297D383C2838C819D81CC
:10035000958384838C819D81DC0113967C936E93BD
:1003600012977D836C8331872087F90180818F5FAD
:100370008083DF91CF910895CF93DF93EB01488184
:1003800059814F3F2FEF520721F4FC01A781B0851F
:100390000DC0DC01139601C0DF011296ED91FC91B6
:1003A00013972081318142175307B0F71296ED91D0
:1003B000FC911397FB83EA83D583C483BD83AC830D
:1003C0001396DC93CE93129799878887FC0120813E
:1003D0002F5F2083DF91CF910895CF93DF93FC01AE
:1003E000A085B185C281D381848195819D838C83D1
:1003F000C481D581828193819B838A8311968D915B
:100400009C911297E817F90731F48481958112962F
:100410009C938E931197118610868C9181508C93AA
:100420008C91DF91CF9108950E9499070895869548
:10043000869587700895882321F08450823018F4BF
:1004400004C084E0089588E0089580E0089580E184
:100450000E94B3070E94B807089584E10E94B30781
:1004600008950F931F93CF93DF938C01C62FD0E095
:10047000BE0101960E9453002196C00FD11F9881A2
:10048000891302C081E001C080E0DF91CF911F910C
:100490000F9108956230F1F128F4662361F0613024
:1004A00029F15BC0643009F450C008F447C06530DE
:1004B00009F44FC052C0FC0124812F3321F421E004
:1004C0002093820502C0109282050E94701183E081
:1004D0000895242F30E0F9013196E80FF91F50817B
:1004E000F901E658FA4F50834F5F01C040E04830B1
:1004F00080F30E94701180E00895242F30E0F9010C
:100500003196E80FF91F5081F901E658FA4F5083F0
:100510004F5F01C040E0483080F30E94701181E0DD
:100520000895242F30E0F9013196E80FF91F50812A
:10053000F901E658FA4F50834F5F01C040E0483060
:1005400080F30E94701182E008950E94701184E08F
:1005500008950E94701185E008950E94701186E050
:100560000895DC0198E0EAE7F5E001900D929A9594
:10057000E1F70895BF92CF92DF92EF92FF920F932F
:100580001F93CF93DF930E94B807C82F0E941702D2
:10059000C82E0E941B02B82E85E0C81669F1EB2C0C
:1005A000F12CC70102960E94D8108C01FC01C08377
:1005B000D12C09C0CD2DD0E02196C00FD11F0E94B3
:1005C000B8078883D3948D2D90E097012F5F3F4F1C
:1005D000821793077CF36B2DC8010E9431028111B1
:1005E00004C00E942D0286E008C00E9427026C2DE4
:1005F000C8010E944A0201C087E0DF91CF911F919C
:100600000F91FF90EF90DF90CF90BF9008958BE116
:1006100090E00E94C50CCC24CA94DC2CE12CF12C77
:100620000FEF1FEF980140E050E0BA0180E00E9418
:100630002F0D0FEF1FEF980140E050E0BA0180E06E
:100640000E942F0D69EF75E081EE95E00E94C508CC
:10065000C9EFD5E06C817D818E819F810E9412015E
:10066000688179818A819B810E949500D4CFCF9344
:10067000DF93CDB7DEB72A970FB6F894DEBF0FBE73
:10068000CDBF0E94450B9A8789870E94BA02182F16
:10069000CE0101960E94B102113031F120F01230EA
:1006A00009F443C046C089819A81AB81BC81E1EEE7
:1006B000F5E080839183A283B3838D819E81AF8196
:1006C000B88584839583A683B783E12CF12C01E060
:1006D00023E030E040E050E060E08091010690913E
:1006E00002060E94D00D25C089819A81AB81BC8110
:1006F000E1EEF5E080879187A287B3878D819E81A7
:10070000AF81B88584879587A687B787E12CF12CC0
:1007100001E02CE030E040E050E060E08091010634
:10072000909102060E94D00D04C0CE0101960E9455
:10073000BD07163009F4A9CF62E070E0CE0109963A
:100740000E94830CA2CF0E9468000E94E50080E016
:100750000E9414020F2EF1E0EF2EF6E0FF2EF02D96
:1007600002E020E030E040E051E067E272E087E044
:1007700093E00E94BF0AE12CF12C01E020E030E080
:1007800040E051E062E372E087E393E00E94BF0A39
:1007900078940E94130BFFCFCF92DF92EF92FF92DB
:1007A0006B017C019B01AC01220F331F441F551FBD
:1007B00060E074E284EF90E00E94B6102F3F3105B4
:1007C0004105510509F018F481E085BD7FC0D701CE
:1007D000C601880F991FAA1FBB1F880F991FAA1F48
:1007E000BB1F9C01AD01220F331F441F551F220F59
:1007F000331F441F551F60E074E284EF90E00E94B5
:10080000B6102F3F31054105510509F018F482E07B
:1008100085BD5CC0D701C601880F991FAA1FBB1FE9
:10082000880F991FAA1FBB1F880F991FAA1FBB1FE4
:10083000880F991FAA1FBB1F880F991FAA1FBB1FD4
:10084000880F991FAA1FBB1F9C01AD01220F331FE8
:10085000441F551F60E074E284EF90E00E94B610E0
:100860002F3F31054105510509F018F483E085BD9E
:100870002DC060E074E284EF90E0A7019601012EA4
:1008800019E0220F331F441F551F1A95D1F7102D61
:100890000E94B6102F3F31054105510509F018F4AB
:1008A00084E085BD13C085E085BDA7019601012EBA
:1008B0001BE0220F331F441F551F1A95D1F7102D2F
:1008C00060E074E284EF90E00E94B610822FFF9007
:1008D000EF90DF90CF90089587B50895CF936E3154
:1008E000710581059105B0F0C42F2AB120622AB9A3
:1008F0000E94CC0387BD85B5886085BDC093830504
:10090000C11104C081E284BD18BC04C081E384BD70
:1009100087B588BDCF910895CF92DF92EF92FF9275
:1009200020E030E048EC52E40E94F10E6B017C01C3
:1009300067B570E080E090E00E94940F9B01AC01ED
:10094000C701B6010E9425106B017C0167B570E0FC
:1009500080E090E00E94940F9B01AC01C701B601BA
:100960000E94201018161CF467B5625004C0C7011D
:10097000B6010E94630F80918305811102C068BD9A
:1009800003C087B5861B88BDFF90EF90DF90CF90A6
:100990000895CF92DF92EF92FF920F931F936B0116
:1009A0007C019B01AC01220F331F441F551F60E0E7
:1009B00074E284EF90E00E94B6102F3F31054105AC
:1009C000510509F020F481E08093B100C5C0D70142
:1009D000C601880F991FAA1FBB1F880F991FAA1F46
:1009E000BB1F9C01AD01220F331F441F551F220F57
:1009F000331F441F551F60E074E284EF90E00E94B3
:100A0000B6102F3F31054105510509F020F482E071
:100A10008093B100A1C0D701C601880F991FAA1FFA
:100A2000BB1F880F991FAA1FBB1F880F991FAA1FE2
:100A3000BB1F880F991FAA1FBB1F9C01AD01220F6E
:100A4000331F441F551F220F331F441F551F60E0E3
:100A500074E284EF90E00E94B6102F3F310541050B
:100A6000510509F020F483E08093B10075C0D701EF
:100A7000C601880F991FAA1FBB1F880F991FAA1FA5
:100A8000BB1F880F991FAA1FBB1F880F991FAA1F82
:100A9000BB1F880F991FAA1FBB1F880F991FAA1F72
:100AA000BB1F9C01AD01220F331F441F551F60E087
:100AB00074E284EF90E00E94B6102F3F31054105AB
:100AC000510509F020F484E08093B10045C03E2D2B
:100AD0002D2D1C2D002760E074E284EF90E0A90129
:100AE00098010E94B6102F3F31054105510509F0CC
:100AF00020F485E08093B1002FC060E074E284EFC1
:100B000090E0A7019601012E19E0220F331F441F28
:100B1000551F1A95D1F7102D0E94B6102F3F3105A1
:100B20004105510509F020F486E08093B10014C01E
:100B300087E08093B100A7019601012E1BE0220FF0
:100B4000331F441F551F1A95D1F7102D60E074E232
:100B500084EF90E00E94B610822F1F910F91FF90BA
:100B6000EF90DF90CF9008958091B3000895CF93D8
:100B70006E31710581059105F0F0C42F2AB128600E
:100B80002AB90E94C9048093B300E1EBF0E08081B0
:100B900088608083C0938405C11106C081E2809380
:100BA000B0001092B40007C081E38093B000809140
:100BB000B3008093B400CF910895CF92DF92EF926B
:100BC000FF92CF93DF936B017C0120E030E04EEB8E
:100BD00052E40E942010181644F40F2EC12CD12C80
:100BE000FEEBEF2EF2E4FF2EF02D20E030E048EC9B
:100BF00052E4C701B6010E94F10E6B017C01C3EB08
:100C0000D0E0688170E080E090E00E94940F9B014A
:100C1000AC01C701B6010E9425106B017C016881FF
:100C200070E080E090E00E94940F9B01AC01C7014E
:100C3000B6010E94201018161CF46091B30004C085
:100C4000C701B6010E94630F80918405811103C022
:100C50006093B40005C08091B300861B8093B400FC
:100C6000DF91CF91FF90EF90DF90CF90089584E0D7
:100C70008093890081EE809388008BE080938100CF
:100C8000EFE6F0E0808182608083089531E1FC012D
:100C90003083319722E220833197A3E3A0833197F9
:100CA00060833197708331971082319760E8608359
:100CB00031971082319762E06083319763E06083FF
:100CC000319764E06083319765E06083319766E037
:100CD0006083319767E06083319768E06083319784
:100CE00069E06083319760E16083319730833197A9
:100CF00032E13083319733E13083319734E130830F
:100D0000319735E13083319736E13083319737E1E0
:100D10003083319738E13083319739E1308331972F
:100D200030E23083319731E230833197208331973D
:100D300023E220833197408331975083319726E215
:100D40002083319727E22083319728E2208331974F
:100D500029E22083319720E32083319721E3208308
:100D6000869708950E943706A091DF05B091E005AF
:100D7000CD91CDBFDD91DEBFFF91EF91DF91CF919E
:100D8000BF91AF919F918F917F916F915F914F91A3
:100D90003F912F911F910F91FF90EF90DF90CF9097
:100DA000BF90AF909F908F907F906F905F904F908B
:100DB0003F902F901F900F900FBE0F90089581E0ED
:100DC00008950F920FB6F8940F921F9211242F924C
:100DD0003F924F925F926F927F928F929F92AF92CB
:100DE000BF92CF92DF92EF92FF920F931F932F93B8
:100DF0003F934F935F936F937F938F939F93AF93A3
:100E0000BF93CF93DF93EF93FF93A091DF05B09152
:100E1000E0050DB60D920EB60D920E94DB0CA0916E
:100E2000DF05B091E005CD91CDBFDD91DEBFFF9133
:100E3000EF91DF91CF91BF91AF919F918F917F9172
:100E40006F915F914F913F912F911F910F91FF9063
:100E5000EF90DF90CF90BF90AF909F908F907F905A
:100E60006F905F904F903F902F901F900F900FBE0C
:100E70000F9008950F920FB6F8940F921F921124BD
:100E80002F923F924F925F926F927F928F929F929A
:100E9000AF92BF92CF92DF92EF92FF920F931F9388
:100EA0002F933F934F935F936F937F938F939F9372
:100EB000AF93BF93CF93DF93EF93FF93A091DF05A1
:100EC000B091E0050DB60D920EB60D920E944F0B3B
:100ED00081110E94DB0CA091DF05B091E005CD915E
:100EE000CDBFDD91DEBFFF91EF91DF91CF91BF913B
:100EF000AF919F918F917F916F915F914F913F91B2
:100F00002F911F910F91FF90EF90DF90CF90BF90A6
:100F1000AF909F908F907F906F905F904F903F9099
:100F20002F901F900F900FBE0F9008950E943A07C8
:100F3000189590E194B990E49CBD811102C09CB5D4
:100F40009CBD813021F48CB588608CBD08958230C1
:100F500021F48CB584608CBD0895833019F48CB570
:100F60008C608CBD08958EBD0DB407FEFDCF089535
:100F70000DB407FEFDCF8EB50895CF93DF93EC013E
:100F8000488159816A817B81E5E8F5E0408351839E
:100F9000628373838C819D81AE81BF8184839583BD
:100FA000A683B783DF91CF9108956F927F928F923E
:100FB0009F92AF92BF92CF92DF92EF92FF920F93E8
:100FC0001F93CF93DF932E153F0591F50C151D054B
:100FD00079F579014A015B013C01C0E0D0E01EC017
:100FE0009E01220F331F220F331F6401C20ED31E36
:100FF000F301E20FF31F6081718182819381F5011A
:10100000E20FF31F20813181428153810E94840EBF
:10101000F60160837183828393832196E09EC001F1
:10102000E19E900DF09E900D1124C817D907C0F2D3
:10103000DF91CF911F910F91FF90EF90DF90CF90B4
:10104000BF90AF909F908F907F906F9008952F9258
:101050003F924F925F926F927F928F929F92AF9248
:10106000BF92CF92DF92EF92FF920F931F93CF9395
:10107000DF9300D000D000D0CDB7DEB72C011B012C
:101080004A013C832B831A8219825FC029813A81ED
:10109000209F5001219FB00C309FB00C1124AA0C4E
:1010A000BB1CAA0CBB1CA40CB51CC301880F991F48
:1010B000880F991F820D931D9E838D83F4011082EA
:1010C000118212821382C12CD12C2AC0F5016191A8
:1010D0007191819191915F01ED81FE81208131813A
:1010E000428153810E9425109B01AC01F401608173
:1010F0007181828193810E94850EF40160837183E6
:1011000082839383C701880F991F880F991F2D81B0
:101110003E81280F391F3E832D833FEFC31AD30A28
:10112000C016D10698F284E0880E911C9FEF691AD0
:10113000790A02C0612C712C6E147F0408F4A6CFCA
:10114000E981FA813196FA83E98329813A818B8199
:101150009C812817390770F326960FB6F894DEBFE6
:101160000FBECDBFDF91CF911F910F91FF90EF90F8
:10117000DF90CF90BF90AF909F908F907F906F90B7
:101180005F904F903F902F900895AF92BF92CF9273
:10119000DF92EF92FF920F931F93CF93DF93CDB720
:1011A000DEB768970FB6F894DEBF0FBECDBFFC0167
:1011B0005B0119821A821B821C821D821E821F8281
:1011C000188680819181A281B38189879A87AB87B4
:1011D000BC8784819581A681B7818D879E87AF87E3
:1011E000B88B80859185A285B385898B9A8BAB8BD3
:1011F000BC8B84859585A685B7858D8B9E8BAF8BA3
:10120000B88FEE24E394F12C04E010E022E030E00B
:10121000AE014F5F5F4FBE01675F7F4F86E091E099
:101220000E942708CC24C394D12C6894EE24E1F8C2
:10123000F12C01E010E022E030E043E156E0BE0195
:101240006F5F7F4F85E895E00E94D50723E136E088
:10125000F90180819181A281B381F501808391831D
:10126000A283B383F90184819581A681B781F501B9
:1012700084839583A683B78368960FB6F894DEBF00
:101280000FBECDBFDF91CF911F910F91FF90EF90D7
:10129000DF90CF90BF90AF900895E091A705F091B7
:1012A000A8058081811107C08FEF9FEF9093910572
:1012B000809390050895E091A705F091A805058019
:1012C000F681E02D80819181909391058093900526
:1012D00008956F927F928F929F92AF92BF92CF921A
:1012E000DF92EF920F931F93CF93DF93CDB7DEB7CB
:1012F0004C01D50157968D919C91589721503109F9
:101300003C01620E731E6115710589F416C0822FAF
:1013100090E0FB01E80FF91F3081D501A80FB91F3C
:1013200059963C938081882329F02F5F01C020E0EB
:10133000283068F3F50110A203C0D50159961C921C
:10134000B3E0BE1520F40F2EF3E0EF2EF02DF501E3
:10135000E68AE1A212A2C50102960E949701C50188
:101360000C960E949701D5011996BC92AE921897DF
:1013700084E090E08E1991091D969C938E931C97A2
:101380005396BC92AE92529784E0F501B396DF017A
:101390001D928A95E9F7F50117A2A801B401C301CE
:1013A0000E944606D5018D939C93C114D10419F077
:1013B000F601B182A082DF91CF911F910F91EF9042
:1013C000DF90CF90BF90AF909F908F907F906F9065
:1013D00008958091BB058230E0F30E94E106F9CFC9
:1013E000CF93C0E010C08C2F90E09C01220F331FE0
:1013F000220F331F220F331F820F931F85549A4FE2
:101400000E948901CF5FC43070F382EB95E00E94A7
:10141000890189EA95E00E9489018CE995E00E94A2
:10142000890182EB95E09093A8058093A70589EA4E
:1014300095E09093A6058093A505CF910895CF934D
:10144000DF93EC010FB6F8940F9280919B058F5FAC
:1014500080939B058091DF059091E005892B59F4DD
:10146000D093E005C093DF0580919B05813099F40E
:101470000E94F00910C08091970581110CC0E09185
:10148000DF05F091E00596898E89891720F0D093C9
:10149000E005C093DF05809192058F5F80939205F0
:1014A0008E8990919805981710F48093980590E094
:1014B0009C01220F331F220F331F220F331F820F75
:1014C000931FBE016E5F7F4F85549A4F0E949B0110
:1014D0000F900FBE80919705882351F0E091DF05B2
:1014E000F091E00596898E89981710F40E94E10624
:1014F000DF91CF9108950F931F93CF93DF93EC016A
:101500000091990510919A058091DF059091E00571
:1015100002960E94ED01C00FD11FE091DF05F0910E
:10152000E005D383C283C017D10768F46091DF055B
:101530007091E0058091A5059091A6056E5F7F4FA3
:101540000E94BC0117C06091DF057091E005809199
:10155000A7059091A8056E5F7F4F0E94BC01809106
:10156000900590919105C817D90720F4D093910563
:10157000C0939005DF91CF911F910F9108952F9205
:101580003F924F925F926F927F928F929F92AF9213
:10159000BF92CF92DF92EF92FF920F931F93CF9360
:1015A000DF933C011B015A012901CA010E9462011B
:1015B0006C01892B71F088E290E00E946201EC01DD
:1015C000892B19F0D88ECF8A06C0C6010E948801E7
:1015D00002C0C0E0D0E0209791F0950140E050E0DB
:1015E000812C912C5E016701E02E8201B101C301C3
:1015F0000E946909CE010E941F0A81E001C08FEF9D
:10160000DF91CF911F910F91FF90EF90DF90CF90DE
:10161000BF90AF909F908F907F906F905F904F9012
:101620003F902F900895EF92FF920F930F2EFEE8B8
:10163000EF2EF5E0FF2EF02D00E020E030E046E454
:1016400050E060E472E089EE99E00E94BF0A8130C8
:1016500081F4F8948FEF9FEF90939105809390051C
:1016600081E08093970510929A05109299050E9447
:10167000B206809126010F91FF90EF90089580911E
:101680008D058F5F80938D0508950FB6F8940F92A6
:101690008091990590919A050F900FBE0895DF9261
:1016A000EF92FF920F931F93CF93DF9380918D055D
:1016B00081119DC0E0909905F0909A058FEFE81A8E
:1016C000F80AF0929A05E0929905E114F104B9F450
:1016D0008091A7059091A8052091A5053091A605B8
:1016E0003093A8052093A7059093A6058093A505A0
:1016F000809193058F5F809393050E944D0980919F
:10170000900590919105E816F90628F4D12C53C064
:10171000DD24D39401C0D12CE091A705F091A80558
:101720008081811107C08FEF9FEF90939105809387
:10173000900541C0E091A705F091A8050580F681CC
:10174000E02DC681D7818A819B81E816F90628F4AD
:1017500090939105809390052EC08E010E5F1F4FD0
:10176000C8010E94ED018C899D89892B21F0CE0151
:101770000C960E94ED018E8990919805981710F4AF
:101780008093980590E09C01220F331F220F331F96
:10179000220F331F820F931FB80185549A4F0E9466
:1017A0009B019E89E091DF05F091E00586899817FD
:1017B00008F0AECFB1CFE091DF05F091E00586896A
:1017C00090E0FC01EE0FFF1FEE0FFF1FEE0FFF1F5B
:1017D0008E0F9F1FFC01E554FA4F8081823010F07C
:1017E000DD24D3948091940581110CC00DC08091AB
:1017F0009505909196050196909396058093950591
:10180000D12C02C0DD24D3948D2DDF91CF911F9177
:101810000F91FF90EF90DF9008950F931F93CF9358
:10182000DF930FB6F8940F9280918D0581508093CD
:101830008D0580918D0581115CC080919B05811182
:1018400033C05AC0E091A105F091A205C681D781AD
:10185000CE010C960E94ED018E010E5F1F4FC80154
:101860000E94ED018E8990919805981710F480934D
:10187000980590E09C01220F331F220F331F220F87
:10188000331F820F931FB80185549A4F0E949B010A
:101890009E89E091DF05F091E0058689981730F088
:1018A00081E08093940502C0C0E0D0E080919C0567
:1018B0008111C8CFCD2B11F00E944D09C091950523
:1018C000D0919605209769F00E944F0B882319F05C
:1018D00081E0809394052197B9F7109296051092B4
:1018E000950580919405882331F00E94E10681E0FE
:1018F00003C080E001C080E00F900FBEDF91CF9168
:101900001F910F9108950F931F93CF93DF938C0135
:10191000EB010E943F0B4091990550919A05F80107
:1019200020813181C9018C0F9D1F4217530740F45C
:101930008217930768F44817590760F0C0E00FC09A
:101940008217930748F04817590740F0C0E007C0D6
:10195000C0E005C0C1E003C0C1E001C0C1E0F801C2
:1019600091838083CC2329F060E0841B950B0E9437
:101970007B0A0E940D0C811102C00E94E1068C2F8F
:10198000DF91CF911F910F910895CF93DF93EC01D9
:10199000892B49F00E943F0B60E0CE010E947B0A38
:1019A0000E940D0C01C080E0811102C00E94E1067E
:1019B000DF91CF91089580918D05882321F081E0FA
:1019C000809394050895109294052091980501C084
:1019D0002150822F90E0FC01EE0FFF1FEE0FFF1F42
:1019E000EE0FFF1FE80FF91FE554FA4F3081332344
:1019F00079F3AC01440F551F440F551F440F551F79
:101A0000480F591FDF010180F281E02D0280F38130
:101A1000E02D1296FC93EE93119742545A4FE4171F
:101A2000F50729F442815381FD0152834183FC0172
:101A3000EE0FFF1FEE0FFF1FEE0FFF1F8E0F9F1FFA
:101A4000FC01E554FA4F0180F281E02D86819781F7
:101A50009093E0058093DF052093980508958F9279
:101A60009F92AF92BF92CF92DF92EF92FF920F932D
:101A70001F93CF93DF93480159010FB6F8940F924B
:101A8000E091DF05F091E005C82FD0E0EC0FFD1FDD
:101A900087A1823061F1E091DF05F091E005CE0190
:101AA000880F991F880F991FE80FF91F83A194A130
:101AB000A5A1B6A1409550956095709548235923EE
:101AC0006A237B2343A354A365A376A3E091DF0598
:101AD000F091E005EC0FFD1F81E087A3C114D10454
:101AE00031F061E0C6010E947B0A0E94E1060F907E
:101AF0000FBE0FB6F8940F92E114F104A1F0E0913B
:101B0000DF05F091E005CE01880F991F880F991F1E
:101B1000E80FF91F83A194A1A5A1B6A1F7018083C5
:101B20009183A283B383E091DF05F091E005EC0F90
:101B3000FD1F87A18230E9F4E091DF05F091E00517
:101B4000CE01880F991F880F991FE80FF91F83A1F5
:101B500094A1A5A1B6A180949094A094B094882259
:101B60009922AA22BB2283A294A2A5A2B6A281E0B6
:101B700001C080E02091DF053091E005C20FD31F46
:101B80001FA20F900FBEDF91CF911F910F91FF9079
:101B9000EF90DF90CF90BF90AF909F908F9008957F
:101BA0008F929F92AF92BF92EF92FF920F93CF933B
:101BB000DF930FB6F8940F92E114F10489F0E62F49
:101BC000F0E0EE0FFF1FEE0FFF1FE80FF91F83A0DD
:101BD00094A0A5A0B6A0F70180829182A282B382D0
:101BE00070E0FC01E60FF71FA7A1B2E0B7A3023037
:101BF00001F118F4013031F04DC0033079F10430B7
:101C0000D1F148C0660F771F660F771FFC01E60F02
:101C1000F71F83A094A0A5A0B6A0BA01A9014829E6
:101C200059296A297B2943A354A365A376A301E01C
:101C300034C0660F771F660F771FFC01E60FF71F92
:101C400043A154A165A176A14F5F5F4F6F4F7F4FB6
:101C500043A354A365A376A301E01FC0660F771FBB
:101C6000660F771FFC01E60FF71F23A334A345A3DC
:101C700056A301E012C0A23079F0660F771F660FFD
:101C8000771FFC01E60FF71F23A334A345A356A338
:101C900001E003C001E001C000E0A13041F5EC012A
:101CA0007C01F2E0EF0EF11CC7010E94ED018E896C
:101CB00090919805981710F48093980590E09C01F6
:101CC000220F331F220F331F220F331F820F931F48
:101CD000B70185549A4F0E949B019E89E091DF05D0
:101CE000F091E0058689891710F40E94E1060F90B3
:101CF0000FBE802FDF91CF910F91FF90EF90BF909B
:101D0000AF909F908F9008955058BB27AA270E94AC
:101D10009C0E0C94E60F0E94D80F38F00E94DF0F43
:101D200020F039F49F3F19F426F40C94D50F0EF4EB
:101D3000E095E7FB0C94CF0FE92F0E94F70F58F3C3
:101D4000BA17620773078407950720F079F4A6F5A0
:101D50000C9419100EF4E0950B2EBA2FA02D0B0148
:101D6000B90190010C01CA01A0011124FF27591BE0
:101D700099F0593F50F4503E68F11A16F040A22FE6
:101D8000232F342F4427585FF3CF46953795279557
:101D9000A795F0405395C9F77EF41F16BA0B620B56
:101DA000730B840BBAF09150A1F0FF0FBB1F661F9D
:101DB000771F881FC2F70EC0BA0F621F731F841FE0
:101DC00048F4879577956795B795F7959E3F08F006
:101DD000B0CF9395880F08F09927EE0F97958795C8
:101DE00008950E94050F0C94E60F0E94DF0F58F033
:101DF0000E94D80F40F029F45F3F29F00C94CF0FD8
:101E000051110C941A100C94D50F0E94F70F68F31F
:101E10009923B1F3552391F3951B550BBB27AA27A3
:101E200062177307840738F09F5F5F4F220F331FDD
:101E3000441FAA1FA9F335D00E2E3AF0E0E832D0A5
:101E400091505040E695001CCAF72BD0FE2F29D0A8
:101E5000660F771F881FBB1F261737074807AB077A
:101E6000B0E809F0BB0B802DBF01FF2793585F4FEF
:101E70003AF09E3F510578F00C94CF0F0C941A1055
:101E80005F3FE4F3983ED4F3869577956795B795D1
:101E9000F7959F5FC9F7880F911D9695879597F9DC
:101EA0000895E1E0660F771F881FBB1F6217730755
:101EB0008407BA0720F0621B730B840BBA0BEE1F6A
:101EC00088F7E09508950E94FF0F88F09F5798F0DB
:101ED000B92F9927B751B0F0E1F0660F771F881F2F
:101EE000991F1AF0BA95C9F714C0B13091F00E9449
:101EF0001910B1E008950C941910672F782F8827D6
:101F0000B85F39F0B93FCCF3869577956795B3956F
:101F1000D9F73EF490958095709561957F4F8F4FDE
:101F20009F4F0895E89409C097FB3EF490958095E3
:101F3000709561957F4F8F4F9F4F9923A9F0F92F8F
:101F400096E9BB279395F695879577956795B7950D
:101F5000F111F8CFFAF4BB0F11F460FF1BC06F5FF3
:101F60007F4F8F4F9F4F16C0882311F096E911C005
:101F7000772321F09EE8872F762F05C0662371F026
:101F800096E8862F70E060E02AF09A95660F771F3A
:101F9000881FDAF7880F9695879597F9089597F92E
:101FA0009F6780E870E060E008959FEF80EC0895FF
:101FB00000240A9416161706180609060895002428
:101FC0000A9412161306140605060895092E0394A2
:101FD000000C11F4882352F0BB0F40F4BF2B11F416
:101FE00060FF04C06F5F7F4F8F4F9F4F089557FD75
:101FF0009058440F551F59F05F3F71F04795880F77
:1020000097FB991F61F09F3F79F08795089512160D
:1020100013061406551FF2CF4695F1DF08C01616B9
:1020200017061806991FF1CF86957105610508946A
:102030000895E894BB2766277727CB0197F9089581
:102040000E94921008F48FEF08950E9438100C94AB
:10205000E60F0E94D80F38F00E94DF0F20F0952382
:1020600011F00C94CF0F0C94D50F11240C941A106E
:102070000E94F70F70F3959FC1F3950F50E0551F25
:10208000629FF001729FBB27F00DB11D639FAA27CD
:10209000F00DB11DAA1F649F6627B00DA11D661F1C
:1020A000829F2227B00DA11D621F739FB00DA11D3D
:1020B000621F839FA00D611D221F749F3327A00DF7
:1020C000611D231F849F600D211D822F762F6A2F93
:1020D00011249F5750409AF0F1F088234AF0EE0FF8
:1020E000FF1FBB1F661F771F881F91505040A9F725
:1020F0009E3F510580F00C94CF0F0C941A105F3F57
:10210000E4F3983ED4F3869577956795B795F79560
:10211000E7959F5FC1F7FE2B880F911D96958795D8
:1021200097F90895990F0008550FAA0BE0E8FEEF04
:1021300016161706E807F907C0F012161306E4078B
:10214000F50798F0621B730B840B950B39F40A2684
:1021500061F0232B242B252B21F408950A2609F462
:10216000A140A6958FEF811D811D0895A1E21A2E31
:10217000AA1BBB1BFD010DC0AA1FBB1FEE1FFF1F2B
:10218000A217B307E407F50720F0A21BB30BE40B7B
:10219000F50B661F771F881F991F1A9469F76095C2
:1021A0007095809590959B01AC01BD01CF0108957C
:1021B0000F931F93CF93DF938230910510F482E049
:1021C00090E0E0911D06F0911E0620E030E0A0E0D6
:1021D000B0E0309719F14081518102811381481795
:1021E0005907C8F08417950769F4109731F01296D3
:1021F0000C93129713961C9327C000931D061093FF
:102200001E0622C02115310519F04217530718F494
:102210009A01BD01EF01DF01F801DBCF2115310586
:10222000F9F0281B390B2430310580F48A819B8119
:102230006115710521F0FB019383828304C09093A3
:102240001E0680931D06FE01329644C0FE01E20F79
:10225000F31F8193919322503109398328833AC027
:1022600020911B0630911C06232B41F42091020182
:102270003091030130931C0620931B06209100012E
:10228000309101012115310541F42DB73EB7409140
:10229000040150910501241B350BE0911B06F091C0
:1022A0001C06E217F307A0F42E1B3F0B2817390773
:1022B00078F0AC014E5F5F4F2417350748F04E0FA2
:1022C0005F1F50931C0640931B068193919302C09D
:1022D000E0E0F0E0CF01DF91CF911F910F910895E1
:1022E000CF93DF93009709F481C0FC0132971382EA
:1022F0001282A0911D06B0911E06109781F42081D4
:102300003181820F931F20911B0630911C062817E4
:10231000390751F5F0931C06E0931B0667C0ED01E9
:1023200020E030E0CE17DF0740F44A815B819E0158
:1023300041155105F1F0EA01F5CFD383C283408105
:102340005181840F951FC817D90759F48881998145
:10235000840F951F0296918380838A819B8193834A
:1023600082832115310529F4F0931E06E0931D06A2
:102370003DC0E901FB83EA8349915991C40FD51F00
:10238000EC17FD0761F480819181840F951F0296FF
:10239000E90199838883828193819B838A83E0E02A
:1023A000F0E012968D919C911397009719F0FD0122
:1023B000DC01F7CF8D919C9111979D012E5F3F4FCE
:1023C000820F931F20911B0630911C062817390796
:1023D00069F4309729F410921E0610921D0602C06F
:1023E00013821282B0931C06A0931B06DF91CF913B
:0623F0000895F894FFCFF0
:1023F60000001F062000AA60C5400FEE723F492E5E
:102406003D419DD7E83FAA60C5C00FEE72BF492E79
:102416003D419DD7E83F0300070E091C1B121538E6
:102426003F363124232A2D70777E796C6B6265489E
:102436004F464154535A5DE0E7EEE9FCFBF2F5D80E
:10244600DFD6D1C4C3CACD90979E998C8B8285A8BE
:10245600AFA6A1B4B3BABDC7C0C9CEDBDCD5D2FF27
:10246600F8F1F6E3E4EDEAB7B0B9BEABACA5A28FDE
:1024760088818693949D9A2720292E3B3C35321FCE
:1024860018111603040D0A5750595E4B4C45426FFE
:1024960068616673747D7A898E878095929B9CB1FC
:1024A600B6BFB8ADAAA3A4F9FEF7F0E5E2EBECC11E
:1024B600C6CFC8DDDAD3D4696E676075727B7C518E
:1024C600565F584D4A4344191E171005020B0C213E
:1024D600262F283D3A33344E49404752555C5B76A9
:1024E60071787F6A6D64633E39303722252C2B065E
:1024F60001080F1A1D1413AEA9A0A7B2B5BCBB964E
:1025060091989F8A8D8483DED9D0D7C2C5CCCBE67D
:10251600E1E8EFFAFDF4F3534620436F6E74726FF1
:102526006C00526563656976696E67446174610023
:0625360049444C45000081
:00000001FF
